:020000040800F2
:1000000000002F20750200080D540008AD6C000898
:100010000D5400080D5400080D5400080D5400083C
:100020000000000000000000000000000D54000867
:100030000D540008000000000D5400080D54000885
:100040000D5400080D5400080D5400080D5400080C
:100050000D5400080D5400080D5400080D540008FC
:100060000D5400080D5400080D5400080D540008EC
:100070000D5400080D5400080D5400080D540008DC
:100080000D5400080D5400080D5400080D540008CC
:100090000D5400080D5400080D5400080D540008BC
:1000A0000D5400080D5400080D5400080D540008AC
:1000B0000D540008514F0008454F0008F14E00084C
:1000C000E54E0008D94E0008CD4E0008C14E00088C
:1000D000B54E00080D5400080D5400080D540008DA
:1000E0000D5400080D5400080D5400080D5400086C
:1000F0000D5400080D5400080D5400080D5400085C
:100100000D5400080D5400080D5400080D5400084B
:100110000D5400080D5400080D5400080D5400083B
:100120000D5400080D5400080D5400080D5400082B
:100130000D5400080D5400080D5400080D5400081B
:100140000D5400080D5400080D5400080D5400080B
:100150000D540008054B00080D5400080D5400080C
:100160000D5400080D5400080D5400080D540008EB
:100170000D5400080D5400080D5400080D540008DB
:10018000A94E00089D4E0008394F00082D4F000869
:10019000214F0008154F0008094F0008FD4E0008C8
:1001A0000D5400080D5400080D5400080D540008AB
:1001B0000D5400080D5400080D5400080D5400089B
:1001C0000D5400080D5400080D5400080D5400088B
:1001D0000D5400080D5400080D5400080D5400087B
:1001E0000D5400080D5400080D5400080D5400086B
:1001F0000D5400080D5400080D5400080D5400085B
:100200000D5400080D540008914E0008854E00085A
:10021000794E00086D4E00080D5400080D5400087A
:100220000D5400080D5400080D5400080D5400082A
:100230000D5400080D5400080D5400080D5400081A
:100240000D5400080D5400080D5400080D5400080A
:100250000D5400080D5400080D5400080D540008FA
:100260000D5400080D5400080D5400080D540008EA
:040270000D54000821
:1002740005F0CBF80E480F490022814201D004C09A
:10028400FBE70D480D490E4A814202D008CA08C056
:10029400FAE70C484FF47001026842EA0102026076
:1002A400BFF34F8FBFF36F8F00F09AFF00DE0000A3
:1002B400400000209C810820000000204000002015
:1002C4007877000888ED00E0F0B503AF2DE9000F62
:1002D400ADF5FE7D824690F8640043F2204840F27A
:1002E400001BC4F20D28C0F2010BCDF80CA0DFE80E
:1002F40010F005009E05B6057C00710004AE304682
:1003040004F05AF901F0DCFB40F20700C0F20000EF
:10031400ADF8000140A805F06EFB01F021FC42F2AB
:10032400004048F28001C0F2F400CDF812100A90A7
:1003340003208DF8420009218DF8160040AD8DF898
:100344001E0040F28010C0F28030ADF8101002217F
:10035400CDF81A00202000248DF857103146ADF84E
:10036400180028465C228DF82C4006F002FB284633
:1003740004F048F914201BA98DF8700040F20030F5
:10038400C0F20110ADF872401D9005F140001E94BA
:100394001B94ADF87C4000F0CBFF01F091FB40F2E0
:1003A4000800C0F20000ADF8800020A805F023FB8F
:1003B40001F0D6FB20AE29468022304606F0D9FA59
:1003C4000AF1680931468022484606F0D2FA8AF8D2
:1003D400E84015E09AF86C00002800F0E78146F642
:1003E4008C60C0F6000006F0E7F99AF8E8000AF11C
:1003F4006809DFE810F005002205340542042704EB
:100404000AF1A80C4946BCE86D006DC1BCE86D005A
:100414006DC19CE87D007DC100208AF8F400CAF813
:10042400EC90CDF808906621CAF82891AAF82C110E
:10043400CAF8F09000F03BBCC007C8F804B07AD00A
:100444000520CDF81E41CDE940A0ADF81C91CDF8B2
:100454000891CDF81091ADF822A1CDF81891D8F8F3
:10046400000080060CD5D8F80000800644BFD8F8F8
:1004740000005FEA806003D5D8F800008006EED45F
:1004840058F8200C29460122012320F0040048F8E2
:10049400200C304600F0B2FEC0B2032840F03E8487
:1004A400D8F82800D8F8F01058F8202C6AF31D72F8
:1004B40048F8202CD8F8E02012F4E06F14BFC8F8F4
:1004C4002800C8F8F010D8F8000080071ED4D8F827
:1004D400000040075CBFD8F800005FEA807015D4C4
:1004E400D8F8000040075CBFD8F800005FEA8070CD
:1004F4000CD4D8F8000040075CBFD8F800005FEACD
:10050400807003D4D8F800004007DCD598F8300098
:10051400D8F8001089078FD4D8F8001089075CBF79
:10052400D8F800105FEA81713FF586AFD8F8001063
:100534008907EDD580E7DDF80CA0002040A9DDF89F
:10054400089043228AF8F4000AF1F500CAF8EC9006
:1005540006F005FB40F2001BC0F2010B7BE3062111
:10056400CAF82C01AAF830110AF1FC05284600F05B
:100574000DFD0121DAF8F00072228AF83411CDE978
:1005840071124FF44072ADF8E021CDE973120022EC
:10059400CDF8E2B17592ADF8E6117792D8F8001073
:1005A40089060CD5D8F80010890644BFD8F8001085
:1005B4005FEA816103D5D8F800108906EED458F8B3
:1005C400201C71AE0122012321F0040148F8201CF3
:1005D400314600F013FEC0B2032840F0EE8358F811
:1005E400200C20F0405048F8200CD8F800004007B8
:1005F4000CD4D8F8000040075CBFD8F800005FEACC
:10060400407003D4D8F800004007EED5062088F8DF
:100614003000D8F8000080070CD4D8F80000800718
:100624005CBFD8F800005FEA807003D4D8F80000FB
:100634008007EED50220C8F80400DAF8F000CAF802
:10064400F8000FCE0FC51FCE1FC596E81F001FC5AB
:10065400002217F8550C37F8571C8AF83421AAF8E9
:1006640035118AF83701DAF8F8000621AAF83011B2
:10067400CAF82C010AF1FC0000F088FC0121DAF828
:10068400F00072228AF83411CDE971124FF44072ED
:10069400ADF8E0210022CDF8E2B1CDE973127592F4
:1006A400ADF8E6117792D8F8001089060CD5D8F881
:1006B4000010890644BFD8F800105FEA816103D5B1
:1006C400D8F800108906EED458F8201C0122012322
:1006D40021F0040148F8201C71A900F08FFDC0B27C
:1006E400032840F06A8358F8200C20F0405048F862
:1006F400200CD8F8000040070CD4D8F800004007BC
:100704005CBFD8F800005FEA407003D4D8F800005A
:100714004007EED5022088F83000D8F800008007A2
:100724000CD4D8F8000080075CBFD8F800005FEA5A
:10073400807003D4D8F800008007EED502204FF073
:10074400010CC8F8040060AE8AF8F4C0B9E83E00B1
:1007540030463EC0B9E83E003EC0B9E83E003EC067
:10076400B9F800309AF8A6909AF8A7E0B9F1020F08
:1007740003808AF8E8C007D103208AF864000DF5E5
:10078400FE7DBDE8000FF0BD0AF1240C37CE6346B0
:1007940037C337CE37C337CE37C3308818800020ED
:1007A4008AF863E08AF86290CAE91AC040F201103C
:1007B4000126C0F200100321469004208DF81F0189
:1007C4004EF61160CDE940600020ADF81D114FF0E8
:1007D4000411429000224490DAF86800489140A93C
:1007E4008DF81C6100F00AFDC0B2032840F0F982C4
:1007F4004CF2C001D8F86001CDF2F801084043F68C
:100804001C41C2F600410843C8F86001D8F86801E9
:1008140020F01F00C8F8680158F8200C40F0405040
:1008240020F0080048F8200C8AF86C6001F048F9C0
:1008340040F20B00C0F20000ADF8000140A805F042
:10084400DAF801F08DF940F24805C2F2040505F129
:100854000410D0E8CF1F002940F04B82C0E8416F5C
:100864000029F6D128464FF4802101224FF4802636
:10087400012406F0C8F9AE5140F24006C2F2000667
:1008840006F10410D0E8CF1F002940F03282C0E8FE
:10089400414F0029F6D130464FF4802101224FF414
:1008A400802406F0B0F900203451311800F11F0201
:1008B4003054CA7700F11E028A7700F11D024A778C
:1008C40000F11C020A7700F11B02CA7600F11A0239
:1008D4008A7600F119024A7600F118020A7600F1CC
:1008E4001702CA7500F116028A7500F115024A75DD
:1008F40000F114020A7500F11302CA7400F1120225
:100904008A7400F111024A7400F110020A7400F1B1
:100914000F02CA7300F10E028A7300F10D024A73CA
:1009240000F10C020A7300F10B02CA7200F10A0210
:100934008A7200F109024A7200F108020A72C21DA9
:10094400CA71821D8A71421D4A71021D0A71C21C3C
:10095400CA70821C8A70421C20304A70B0F5802F05
:10096400A3D104F017FD4FF4802BCDE9200156F8F4
:100974000B2040A8CDE9406255F80B20DDE9400189
:1009840000F097FB20A804F007FD43F60952A0FBF2
:10099400020301FB0231400A40EAC1504090480A78
:1009A400419001F08DF840F20C00C0F20000ADF867
:1009B400800020A805F01FF840F2060820A8C0F225
:1009C4000008ADF8808004F0E1FF46F6F4700321DE
:1009D400C0F6000004F0CAFF0DF1800940F2040AD9
:1009E400C0F2000A4846ADF880A004F0CFFF40A84A
:1009F40004F0AFFF01F0B4F855F80B0060B32844DD
:100A040000216A5CCBB271919A4240F09A816A18D3
:100A14000132824220D04B1C16787193DCB2A6427C
:100A240040F08F810132824216D08C1C167801333B
:100A34007193E4B2A64240F08481013282420BD029
:100A44000331167801337193C9B28E4240F0798133
:100A54000132591C8242D4D104F09CFC55F80B207D
:100A6400CDE92001B2F5802F40F0CE8128464FF425
:100A7400802101224FF4802906F0C5F820A804F053
:100A84008BFC43F60956A0FB060201FB0621400A33
:100A940040EAC1504090480A419001F011F840F2F8
:100AA4000D00C0F20000ADF8800020A804F0A3FF00
:100AB40020A8ADF8808004F069FF46F6F7700521A0
:100AC400C0F6000004F052FF0DF1800BADF880A0D9
:100AD400584604F05BFF40A804F03BFF01F040F8E7
:100AE40055F8090030B3284400216A5C7191012A49
:100AF40040F03C816A18013282421BD014784B1CAE
:100B04007193012C40F03281511C814212D00A7839
:100B140001337193012A40F029814A1C824209D091
:100B24001478591C7191012C40F02081013201315B
:100B34008242DAD104F02EFCCDE9200140F200001B
:100B4400CAF20000CDF80491409040A855F809205D
:100B5400DDE9400100F0ADFA20A804F01DFCA0FB83
:100B6400060201FB0621400A40EAC1504090480AAF
:100B7400419000F0A5FF40F20E00C0F20000ADF875
:100B8400800020A804F037FF20A8ADF8808004F08E
:100B9400FDFE46F6FC700921C0F6000004F0E6FEF6
:100BA4000DF18008ADF880A0404604F0EFFE40A8A7
:100BB40004F0CFFE00F0D4FF55F80900039E30B3D3
:100BC400284400216A5C7191012A40F0DC806A1893
:100BD400013282421BD014784B1C7193012C40F0DB
:100BE400D280511C814212D00A7801337193012AB8
:100BF40040F0C9804A1C824209D01478591C719172
:100C0400012C40F0C080013201318242DAD100F07F
:100C140057FF40F20900C0F20000ADF8000140A8FF
:100C240004F0E9FE00F09CFF012086F86400002037
:100C340030724FF0FF30C6E900000DF5FE7DBDE8CF
:100C4400000FF0BD9AF8F400DFE810F00500FD0095
:100C540009010F004100DAF8EC0000218AF8341190
:100C6400CAF8F800CAF8F00079E49AF834010028C8
:100C74003BD003283FF478AC31E09AF8F400CDF887
:100C84000890DFE800F020E6EC1403000AF1F80015
:100C940000F07CF9DAF8F06040AD4FF0010A4FF44F
:100CA40080744FF000094FF0020BFFF7C9BB0AF143
:100CB400F80000F06BF9DAF8F0009921AAF82C1189
:100CC400CAF82801E2E7DAF8EC90FFF7ACBB9AF82F
:100CD400340100283FF4C7AC03283FF4CBAC46F6FC
:100CE400CC60C0F6000005F067FDDAF8F800FFF705
:100CF40036BC0121BFF32F8F0020419146F60451E9
:100D04004490C0F6000143900420409146F6785187
:100D1400429040A8C0F6000104F0FAFE8DF8C40128
:100D240046F6DC60C0F6000046F6D853009046F65E
:100D3400E85071AAC0F60000C0F600032B2104F0AD
:100D440041FF002046F62C7144900220419046F663
:100D54001C70C0F60000C0F6000140900120CDE9EF
:100D6400429046F2E370C0F6000020E00020449078
:100D74000220419046F61C70C0F60000409001200D
:100D8400CDE942B00BE0002044900220419046F6A9
:100D94001C70C0F6000040900120CDE9428046F26C
:100DA400E37046F63C71C0F60000C0F600012190E5
:100DB40071A8209040A804F0ABFE07F8570C46F643
:100DC400EC60C0F6000046F6D853009046F6E850B2
:100DD400A7F15702C0F60000C0F600032B2104F06F
:100DE400F1FE8DF8800046F67C60C0F6000046F601
:100DF400D853009046F6E85020AAC0F60000C0F68A
:100E040000032B2104F0DEFE01210020419146F66F
:100E14007471C0F60001449043900420409146F65A
:100E24007C71429040A8C0F6000104F071FE47F2C4
:100E34000800C0F6000005F0BFFC46F65C60C0F692
:100E4400000005F0B9FC46F66C60C0F6000005F041
:100E5400B3FC46F6BC60C0F6000005F0ADFCFEDE57
:100E64000022016080F84420704780B56F4682B04C
:100E7400044604F08DFB04F0E8FA40F25006C2F296
:100E8400080635680DBB804640F29810C2F208008F
:100E94004FF4004C50F80C2000F50041002A08BF24
:100EA4000246D31D891A23F007039B1A03F59C7588
:100EB4008D423DD85119D51840F80C104FF49C714F
:100EC400284605F04EFE4046356004F0C5FA05F1AB
:100ED400080040F2011150E8002FB2B940E80012B6
:100EE400002AF8D140F2CD20C0F600002146686106
:100EF40005F12000FFF7B4FF2046294604F0E7FA85
:100F0400204604F04DFB20BFFAE7BFF32F8F00F01B
:100F1400D7FD40F23E00C0F2000027F8020CB81ED4
:100F240004F069FD00F013F800F01AFE04F07AFDF5
:100F340000F0C6FD40F23F00C0F20000ADF804002E
:100F440001A804F058FD00F00BFE04F06BFD80B521
:100F54006F4682B040F23D00C0F2000027F8020C58
:100F6400B81E04F013FD02B080BD007847F21802E9
:100F74000B4647F22401C0F60001C0F6000251F806
:100F8400201052F82020184605F08BB9F0B503AFB5
:100F94004DF804BD84B0044690F8350040B10328F0
:100FA4007BD194F82C0000287DD1D4E909012EE0EE
:100FB4000026012094F83410A661E077256B2661A1
:100FC400C4F81B60266284E84300019100F078FDB8
:100FD40040F20A00C0F2000027F8160CA7F1160030
:100FE40004F009FD40F20300C0F2000027F8120CDF
:100FF400A7F1120004F0CAFC01A804F09FFC00F061
:10100400AFFD284684F82C60C4E90904214643F264
:101014002045C4F20D252A68920609D52A6892064D
:1010240044BF2A685FEA826202D52A689206F2D433
:10103400002200F0E3F8C0B2032817D12868800723
:1010440009D4286880075CBF28685FEA807002D4EE
:1010540028688007F2D502206860012084F83500F2
:1010640084F82C0004B05DF804BBF0BD07F8130C41
:1010740046F6AC600121C0F6000084F82C1046F658
:10108400D853009046F6E850A7F11302C0F60000CA
:10109400C0F600032B2104F095FD46F69C60C0F6D3
:1010A400000005F089FB46F6C850C0F6000005F0C4
:1010B40083FBF0B503AF2DE9000F8DB091425CD1F5
:1010C40080464FF4802001908946880368D15FEA06
:1010D400994046D040F2480BA0F1010A0024C2F224
:1010E400040B4C4541D20BEB040608EB04054FF40A
:1010F40080223046294605F032FDBAF1000F30D087
:1011040004F58020484531D206F5802005F580217C
:101114004FF4802205F023FDBAF1010F21D004F52C
:101124000020484522D206F5002005F500214FF4A1
:10113400802205F014FDBAF1020F12D004F540200C
:10114400484513D206F5402005F540214FF480228E
:1011540005F005FDAAF1040A04F580141AF1010052
:10116400BFD10DB0BDE8000FF0BD204646F6E472D5
:101174004946C0F6000204F007FD01210020039156
:1011840046F67471C0F600010690059004200291A1
:1011940046F67C71049002A8C0F6000104F0B8FC85
:1011A400002001A906900320039046F6BC70C0F607
:1011B4000000CDF8309002900220059008A8049019
:1011C40046F2E370C0F60000CDE9090146F6D47199
:1011D4000B900CA8089002A8C0F6000104F098FC3B
:1011E40080B56F4600F000F880B56F4684B06C4659
:1011F400204604F044F92046FFF737FEF0B503AF6C
:101204002DE9000F82B0067D012091F81FC0B4457E
:101214009CBF91F820E0B64503D902B0BDE8000FA9
:10122400F0BD91F82150B5429CBF91F82280B045A1
:10123400F3D843F22040C4F20D200668B60609D55F
:101244000668B60644BF06685FEA866602D5066885
:10125400B606F2D4CDE9002350F8206C0C6926F0D0
:10126400405640F8206C012C11D14C69C0F8004163
:10127400D0F8E0408E7E24F47C1491F81E9044EA69
:10128400054444EAC64444EA0954C0F8E0404C7FAB
:101294000D7E91F81CB091F81B900A6891F82360B8
:1012A400D0F8E8A02AF01F033344C0F8E830009BCC
:1012B400019E13F0010318BF731E03622303D0F8C9
:1012C400E0404CF2C00643EA0863CDF2FF06344026
:1012D40004EB0C06012A46EAC50646EA0B1646EA62
:1012E4000E2646EAC52643EA060309EB890603EB04
:1012F400C663C0F8E03005D1D1E901235BB1C0F881
:10130400F02001E08A686AB1C9688162032002B0F2
:10131400BDE8000FF0BDC0F8F020032002B0BDE826
:10132400000FF0BD012002B0BDE8000FF0BDD4D421
:10133400F0B503AF2DE9000789468246002003215A
:1013440003F05AFF02467A20082103F058FF0020D8
:10135400032103F051FF02467B20082103F04FFFD5
:101364000020032103F048FF02467C20082103F0FB
:1013740046FF0020032103F03FFF02467D200821A1
:1013840003F03DFF0020032103F036FF02467E20D8
:10139400082103F034FF0020032103F02DFF02464F
:1013A4007F20082103F02BFF0020032103F024FFFA
:1013B40002468020082103F022FF0020032103F0CD
:1013C4001BFF02468120082103F019FF002003219E
:1013D40003F012FF02468320082103F010FF40F2BD
:1013E40000127920C0F20302082103F008FF002054
:1013F400032103F001FF02468220082103F0FFFECF
:1014040047F23000C0F6000003F0C8F800F0ACFB6F
:1014140043F22040C4F20D200168890609D5016811
:10142400890644BF01685FEA816102D501688906C3
:10143400F2D499F80B3047F2380299F80410C0F648
:10144400000250F818EC4FF4C02852F823C0DFE82B
:1014540001F0540C212718333C2A451E42151B3930
:1014640012240F2D3F4B3036484E4FF4E02844E011
:101474004FF4B01841E04FF4A0183EE04FF4881840
:101484003BE04FF4202838E04FF4901835E04FF457
:10149400702832E04FF400282FE04FF4A8182CE015
:1014A4004FF4102829E04FF4502826E04FF4B818E0
:1014B40023E04FF4D01820E04FF430281DE04FF41F
:1014C400D8181AE04FF4981817E04FF4402814E0A5
:1014D4004FF4C01811E04FF480180EE04FF4602868
:1014E4000BE04FF4E01808E04FF4C81805E099F851
:1014F400051001F01F014FEA01484CF2F40299F87B
:101504000A50CFF6E00299F8111002EA0E0299F897
:101514000E6042EA0C0299F80C3042EA080247F2E3
:10152400500442EA0522C0F60004324354F8233042
:1015340042EAC10140F8181C50F8141CD9F80020E4
:1015440021F4E02199F80760194340F8141C4FF680
:10155400007350F8101CCFF6E07399F80850194046
:1015640006F01F0341EA0341294440F8101C50F8D7
:101574000C1C99F8091040F80C2C50F8202C22F47B
:101584007C5242EA012140F8201C0168890609D5F1
:101594000168890644BF01685FEA816102D5016878
:1015A4008906F2D450F8141C99F8062021F0FF01A2
:1015B400114440F8141C0168890609D5016889069C
:1015C40044BF01685FEA816102D501688906F2D4EB
:1015D40050F8201C99F80D2099F80F3021F04001A3
:1015E40099F81060012A40F8201C47F60132D0F81F
:1015F400E810C7F6014221F0A04141EA837148F2A4
:10160400013341EA0671C0F8E81050F8201CC7F60F
:10161400012341F0010140F8201C02BF50F8181CBE
:1016240041F0020140F8181C002047F601118AF825
:101634001700C8F20121AAF815008AF83E008AF8BA
:1016440038008AF836008AF834008AF832008AF8BA
:1016540030008AF82E008AF82C008AF82A0048F212
:101664000110CAF83A1047F60151AAF8280047F6C3
:101674000170C8F20100C7F60161CAE908105046BA
:10168400CAE9063299E86E006EC004208AF8140094
:10169400BDE80007F0BD006804F0DAB980B56F4614
:1016A40082B040F2540172B6C2F208010A78FAB963
:1016B40001220A70009000F003FA40F20F00C0F219
:1016C4000000ADF8040001A804F095F940F202000E
:1016D400C0F2000027F8020CB81E04F057F947F2D4
:1016E40064016846C0F6000104F05CF900F038FAC1
:1016F4004EF62450CEF20000016821F480210160EE
:1017040000DEFEDEF0B503AF2DE900074AB300F1B9
:101714000C080669D8E8AF3F9E4219D9DD43741915
:10172400FCB1A24238BF1446E618B6F5806F1DD945
:101734004268C3F58065824689461A4410462A46A3
:1017440005F00DFADAF8040009EB0501621B10E05C
:10175400002E12BFC3F5806440F2FF36F41A002C49
:10176400DFD100242046BDE80007F0BD40682246D2
:10177400184405F0F4F96FF39F26C8E8AF6F2046CC
:10178400BDE80007F0BDF0B503AF2DE9000714462E
:1017940000F10C08B2F5806F28BF4FF48064D8E8DC
:1017A400AF3F1E19B6F5806F0FD94268C3F5806547
:1017B400824689461A4410462A4605F0D0F9DAF8DA
:1017C400040009EB0501621B02E04068224618444C
:1017D40005F0C5F96FF39F262046C8E8AF6FBDE852
:1017E4000007F0BDF0B503AF2DE9000782B040F269
:1017F400550840F20006C2F2080841F2097998F847
:10180400030041F28B75C2F20006C0F60009C0F66F
:101814000005A0B307281BD24FF0FF3298F804103C
:1018240002FA00F0A7F11A0A08432C4600F07F00E0
:1018340007F81A0CF06A00F00300022808BF4C46AF
:1018440006F1180051460122A0470028F8D014E000
:101854007930A7F11B0A40F0800007F81B0CF06AEE
:101864002C4600F00300022808BF4C4606F118007D
:1018740051460122A0470028F8D0012820D1002099
:10188400A7F1190407F8190CF06A00F00300022804
:1018940008BF4D4606F1180021460122A84700283A
:1018A400F8D001280CD10020A8F8030088F8000023
:1018B40098F8010003F0D0FD02B0BDE80007F0BDC8
:1018C40047F2E0020121C0F6000204F0EEFCF0B59C
:1018D40003AF2DE9000F85B0002900F0E68040F247
:1018E400550340F2000AC2F208034618DC78A7F157
:1018F4002109A7F11E0BC2F2000A019605E000249B
:10190400A3F80340B04200F0D08010F8011BE2B20B
:10191400072A25D2002971D007F8211C8046DAF85D
:101924002C0041F28B75C0F6000500F0030002287C
:1019340041F20970C0F6000008BF05460AF118001C
:1019440049460122A8470028F8D0012840F0B18078
:1019540040F255034046C2F20803DC78197953E09B
:10196400002902907BD007F81E1C41F28B78DAF82C
:101974002C00C0F6000800F00300022841F20970B0
:10198400C0F6000008BF80460AF118055946012236
:101994002846C0470028F7D0A7F11D08012840F0C9
:1019A400888040F25503C2F20803D878441CDDE96C
:1019B4000160DC70E1B28629A4D1FF2041F28B766C
:1019C40007F81D0CC0F60006DAF82C0000F003003E
:1019D400022841F20970C0F6000008BF06462846F6
:1019E40041460122B0470028F9D0012861D1DDE940
:1019F400016040F25503C2F2080380E7197901251A
:101A040005FA02F2114319710134DC70E2B2072ABB
:101A14007FF478AF0A063FF475AF8DF81010804656
:101A2400DAF82C0041F28B7504ACC0F6000500F026
:101A34000300022841F20970C0F6000008BF054601
:101A44000AF1180021460122A8470028F8D00128ED
:101A54002FD140F255034046C2F208034FE704F188
:101A6400790041F28B7540F0800007F81F0CDAF81A
:101A74002C00A7F11F08C0F6000500F0030002289F
:101A840041F20970C0F6000008BF05460AF11800CB
:101A940041460122A8470028F8D0012809D140F284
:101AA40055030298C2F2080329E705B0BDE8000F08
:101AB400F0BD47F2E0020121C0F6000204F0F5FB9C
:101AC400F0B503AF4DF804BD86B003F0BEFC40F2A0
:101AD4005501C2F208010A787ABB01220A708B7898
:101AE4004870FBB940F2000500208A70C2F200057C
:101AF4008DF8000041F28B76E86A41F20971C0F674
:101B040000066C4600F00300C0F60001022808BF7E
:101B14000E4605F1180021460122B0470028F8D0EE
:101B2400012803D106B05DF804BBF0BD47F2E00222
:101B34000121C0F6000204F0B8FB0121002001914C
:101B440047F21011C0F600010490009147F2801191
:101B5400039004200290C0F60001684603F0D8FF09
:101B6400FFF740BEFFF7B3BE80B56F4682B040F6C4
:101B7400E440C4F202600068C0F38150DFE800F082
:101B84000267244640F25C00C2F20800806F00281D
:101B940063D1FFF795FF40F22500C0F20000ADF8D5
:101BA4000000684603F027FF47F2B410C0F60000B7
:101BB40001F0BBFD47F29410C0F6000001F0B5FD42
:101BC400FFF7CEFF03F02EFF40F25C00C2F20800E4
:101BD400806D002841D1FFF773FF40F22700C0F267
:101BE4000000ADF8040001A803F005FF47F2B410AB
:101BF400C0F6000001F099FD47F2C410C0F60000E1
:101C040001F093FDFFF7ACFF03F00CFF40F25C0022
:101C1400C2F20800806E00BBFFF752FF40F22800BA
:101C2400C0F2000027F8020CB81E03F0E4FE47F2ED
:101C3400B410C0F6000001F078FD47F2D410C0F6ED
:101C4400000001F072FDFFF78BFF03F0EBFE40F2A2
:101C54005C00C2F20800006D08B102B080BDFFF75D
:101C64002FFF40F22600C0F2000027F8060CB81F30
:101C740003F0C1FE47F2B410C0F6000001F055FDB8
:101C840047F2A410C0F6000001F04FFDFFF768FF13
:101C940003F0C8FEC9B2DFE811F0F40180002502A8
:101CA4003A02E3017C02A2023C02BA020D02B20231
:101CB400C3010502990293012D027E015002AD0277
:101CC40019036E029102E40239031D0215025B033B
:101CD400710141034903C2024E02C7029B0179010B
:101CE4005B016301310156031103EB015D0229031A
:101CF400F9008E01CF0293034501A301DB01E90042
:101D0400B90388033A01660378034D012103B30143
:101D14003103F50173028C023802FD0184021901BA
:101D24008601D9036801D000290173039B03AC0326
:101D340052016602D800C903B5002101D301BB01D9
:101D4400A6009500DC02EC02A403F100F903EE0303
:101D5400A8003E02E1005802E103C2000204460268
:101D64000A04E903D1030101C103B403C700B000AD
:101D74003C010B019D008B006B0304031001060161
:101D8400F4025103AB010903FC02BD00CB01900036
:101D9400820080032F02D702F3014008704744F207
:101DA40011218008C2F20811A0FB010188087047C4
:101DB40040F68931C2F2357161E341F2A701C0F600
:101DC40068215CE34CF2C101CCF2C001A0FB01012B
:101DD4008809704742F295014008C0F64F11A0FBF4
:101DE4000101480870478008B5E144F2C921CBF2EB
:101DF4001621A0FB01018809704743F2A341C3F2F5
:101E04003E213CE34CF6CD41CCF6CC41A0FB010194
:101E14008809704745F2BF61C0F6CF612FE347F6EA
:101E2400AF61C5F2D0112AE347F2ED314008C4F6A0
:101E34004851A0FB0101080970474BF24941CEF219
:101E4400C261A0FB01018809704742F2D301400836
:101E5400CDF20D21A0FB01014809704744F25D1148
:101E6400CAF64C61A0FB0101880970474AF2A1013E
:101E7400CAF2A001A0FB01014809704740F2E12128
:101E8400CBF61701A0FB01018809704748F6A3317E
:101E9400CBF62E21A0FB0101480970474CF6CF3147
:101EA400C3F62261EBE246F6DB21C1F6F041E6E23D
:101EB4004BF2D941C2F69F41E1E242F2EF314008D0
:101EC400C8F6B871A0FB01014809704744F66B419C
:101ED400C0F2A471A0FB01014808704748F2E77101
:101EE400CCF64521A0FB01018809704748F6396109
:101EF400C3F6E301A0FB01010809704741F6F32191
:101F04004008C6F6CA31A0FB0101C8087047400862
:101F140000E0800841F2F721C4F6DA31A0FB0101A8
:101F2400C80870474AF6AB21CAF6AA21A0FB0101F2
:101F34004809704744F2DD71C1F6707139E248F224
:101F4400BD618008C1F6F221A0FB01014808704779
:101F540048F63961C3F6E301A0FB0101C8087047E4
:101F640049F24D11CBF6CF2123E24AF2EB014008AE
:101F7400CEF60E21A0FB010148097047800844F603
:101F84002511C2F29241A0FB0110704744F2D51111
:101F9400CDF21D410DE24FF2F101CFF2F001A0FBB1
:101FA4000101080970474FF2F101CFF2F001A0FBE3
:101FB4000101880970474CF26D11C6F61641F8E12B
:101FC40048F68901C8F68801A0FB0101C8087047DA
:101FD4004FF2F101CFF2F001A0FB01014809704773
:101FE40048F29D21C5F29731A0FB01010809704711
:101FF40043F6BF41C2F2B621A0FB010108097047B4
:1020040043F6BF41C2F2B621A0FB0101C8087047E4
:1020140047F21F21C3F25911A0FB010108097047BF
:102024004AF6AB21CAF6AA21A0FB0101C8087047F1
:102034004CF23F51C4F22531A0FB0101480970471D
:1020440040F67D41CCF2CE71A0FB010188097047B6
:1020540048F21F51C5F2EB11A0FB010108097047BA
:102064004CF6CD41CCF6CC41A0FB01018808704769
:1020740040F67D41CCF2CE71A0FB010148097047C6
:10208400C00970474CF23F51C4F22531A0FB010155
:10209400080970474CF2FD01CFF60F41A0FB010186
:1020A400880970474EF64F41C4F6C461A0FB010194
:1020B400880870474CF6CD41CCF6CC41A0FB010119
:1020C400C80870474EF64F41C4F6C461A0FB010135
:1020D400C808704748F21F51C5F2EB11A0FB01017B
:1020E400C80870474AF6AB21CAF6AA21A0FB010131
:1020F400480870470009704742F283014008C8F25B
:102104000821A0FB01014809704780097047800835
:102114007047C008704740F60331CBF22C01A0FB96
:102124000101880970474BF20351CAF27E51A0FBAA
:102134000101880970474009704748F63961C3F6C0
:10214400E301A0FB01018808704742F20931C5F69A
:10215400ED0194E1400840F63141C3F2C301A0FB14
:102164000101880870474DF6C161C3F23151A0FBEB
:1021740001010809704746F28711C8F21861EBE0C3
:1021840040F643014008C8F22141A0FB01010809BF
:1021940070474AF6AB21CAF6AA21A0FB01018808C0
:1021A400704748F2E131C3F60F61A0FB0101080951
:1021B400704744F20511C0F21041FAE048F6A33129
:1021C400CBF62E21A0FB01010809704742F293418E
:1021D4004008C9F24921A0FB01018808704744F670
:1021E4002511C2F29241A0FB0112801A02EB5000A9
:1021F4008008704746F6CB31CAF62871ACE048F641
:10220400A331CBF62E21A0FB0101C808704748F684
:102214003961C3F6E301A0FB01014808704741F2AC
:102224008501C0F6420197E048F2E131C3F60F613F
:10223400A0FB0101C808704744F2C921CBF2162162
:10224400A0FB01014809704740F61101C0F20421C6
:1022540015E14BF68361C2F6A071A0FB01010809E8
:10226400704744F2C921CBF21621A0FB01010809F1
:10227400704749F60311C2F61471A0FB0101080965
:1022840070474CF60931C8F63D51A0FB010188099D
:10229400704748F68901C8F68801A0FB0101880946
:1022A400704747F61301C2F2FB11E8E042F2450120
:1022B400C4F2D741A0FB0101480970474CF6CD4157
:1022C400CCF6CC41A0FB0101480970474CF6CD4146
:1022D400CCF6CC41A0FB0101080970474CF609314A
:1022E400C8F63D51A0FB0101480970474BF68361D4
:1022F400C2F6A071A0FB0101C808704748F6890125
:10230400C8F68801A0FB0101480970474AF6AB21D1
:10231400CAF6AA21A0FB0101080970474CF609314D
:10232400C8F63D51A0FB01010809704748F6890130
:10233400C8F68801A0FB01010809704748F2191189
:10234400C1F611019BE044F2A511CAF21A4130E032
:1023540044F6DB31C2F66871A0FB0112801A02EB6D
:1023640050000009704741F29F21C2F6E41120E0B9
:10237400000944F62511C2F29241A0FB01107047F6
:1023840047F23901CCF2E00179E0C00844F62511A6
:10239400C2F29241A0FB0110704744F6D351C1F23E
:1023A4006201A0FB0101C80870474CF6B371C3F287
:1023B4002151A0FB0112801A02EB50004009704722
:1023C40044F25D11CAF64C61A0FB01014809704753
:1023D4004CF6A7014008CDF66751A0FB010148095E
:1023E400704748F6A331CBF62E21A0FB01018809E2
:1023F400704748F2B511C1F64E31A0FB0101C8087F
:10240400704748F23911C3F6130138E04EF64F41D4
:10241400C4F6C461A0FB0101080970474EF64F41A0
:10242400C4F6C461A0FB01014809704747F2A94101
:10243400CCF66471A0FB0101880970474AF2A1013E
:10244400CAF2A001A0FB01018809704748F2DB1120
:10245400C7F2B961A0FB0101480970474AF6AB21F4
:10246400CAF6AA21A0FB01018809704748F2576106
:10247400C4F26F4103E048F26911C6F61601A0FBED
:102484000112801A02EB50008009704746F2B7012E
:102494004008CBF20B61A0FB01014809704748F2E8
:1024A4009D21C5F29731A0FB01014809704748F20C
:1024B4001F51C5F2EB11A0FB010148097047D4D4A8
:1024C40089B20339B1F5FE7F01F20F81DFE811F023
:1024D400FD0129061B04EE022703AB082E08330373
:1024E400FF01D9080609EF073B029D07CD025003FF
:1024F4001502F207C00252027A076808EB082F029D
:10250400E4084F02BE03B4089404AE08FF08230293
:10251400DC07A2083E084E080A020A097708B70732
:10252400F1088608CE068705F7080302380242053B
:10253400010463022C02D9032D0468049C080E08CC
:102544005005130606026903E2089608D104AF0297
:102554004304620373039908FB084602B7086C023C
:1025640038082008050645050E0265045A021A06B5
:10257400E808BA077E02EE087102E4030309FC02CC
:102584005E0889087A08690282038308DF08290241
:102594005B084F049B06000558087D08430240026F
:1025A400CA023D02200268071C035D0719023502B6
:1025B4009A021202F4084F07EC044C023202BA08E1
:1025C4001C027B02D20890075502C008EE03560491
:1025D4003B06E002E7028B0230079702E106AF03F5
:1025E4002903260260029103B603D6081007940259
:1025F4005703CF081F044B089A07C9085D02A402B9
:10260400CC08DC08C70222050807420394065702D7
:1026140045086906B9028207480866063208A2041A
:10262400C605C60863062A049E06C3088204150369
:102634008E030808B705D907390405082B08850750
:1026440028058D049707CA03D107BD08B602E4071D
:1026540061085508A808E70329079F081F0788028F
:102664000B0849020E03A508130573042403780517
:1026740073076C036602D504D10235089102520730
:102684000B03AC06FE033006E707B1086B08C70668
:102694003B0838077408B407810293083F051508FE
:1026A4007802A0036E088E028C08800814042207A6
:1026B400A102F10240044903E0032C03A5067108BA
:1026C400FF029008E30210066F02250574021D063E
:1026D400EA0284023603C302FD07A8075E03F50776
:1026E40027086408A40718089D02A7028C07AB02F8
:1026F4005108FC04BD07BC02AE052106740541085F
:10270400DC036F04110816066503D402B2027603D3
:10271400D802CD071C0823087B0576042506C507C7
:10272400F603EA030303F802EB07070304075D0457
:102734001E0518032C071B076F076007C3068305D4
:102744004B0747072003B00788072F034B04DC021D
:10275400AC07C10798036C056F03AB0393074C03E5
:10276400F4027A03A00752040F053A03CA06370697
:1027740064072C067E04A3032604C6031103010880
:10278400D507F9076B077A04B203F203E007530392
:10279400FA032204130792053504850496057E0383
:1027A400D80486035507AF063F069004E4064307A2
:1027B400C907CD049403C203B706E80434077607B7
:1027C4005A033E03F0042F0547065C0543069E05A5
:1027D400D10645039C033B0508045B066C061A05F9
:1027E4009006570689049A045F06B3068A03BA035F
:1027F4009604B504D5031004F006F8066B0400072C
:1028040025077E07BE0559070C041707CD053C04B0
:10281400BA05D1033B073F075904E80653064B06A4
:10282400A703CD0333054805A5040404FC063104BD
:10283400D505C104EC06DD06BB06A9041704DC04B7
:102844000C07F8049E04E5056405A205E905DD0509
:10285400600580062B057806BD04BF06A806B104F2
:10286400D506F40647044C051605B904D906330603
:10287400030561047C06D105580570069706AD046E
:10288400C904C504E4040B050C06C20508068C063D
:102894008806E004A1067F058A0584064F06ED0537
:1028A400D9057406F905C905F4049A050705F10567
:1028B40068053705FD0570050106AA05F505E1055E
:1028C4005405A6058E05B205B5058000704700EBDA
:1028D400400080007047312148437047C0EB4010EE
:1028E4004000704700EB8000C000704700EB8000A0
:1028F4000001704775214843704700EB8000800059
:102904007047722148437047C0EB40108000704705
:102914006E21484370472321484370478D21484323
:1029240070476321484370473621484370471B2151
:10293400484370477A21484370477321484370479E
:10294400322148437047000170476D214843704766
:102954006B21484370476A214843704749214843E3
:102964007047CD21484370477921484370471D2162
:1029740048437047172148437047C0017047A3215B
:10298400484370475221484370479A21484370474F
:102994008E2148437047352148437047D621484328
:1029A40070475F21484370474B21484370470002FA
:1029B400704758214843704700EBC01040007047EF
:1029C400EC21484370477D214843704756214843D2
:1029D4007047E8214843704740F205114843704767
:1029E400CB2148437047872148437047EF21484330
:1029F4007047DA214843704793214843704789213F
:102A04004843704774214843704700EB00100001AD
:102A14007047F421484370479B214843704740F274
:102A240011114843704740F2131148437047432142
:102A3400484370474FF4917148437047C22148435B
:102A44007047A6214843704740F217114843704726
:102A540016214843704740F20711484370479E21AE
:102A6400484370476C214843704700EBC000400066
:102A74007047D8214843704740F2211148437047BA
:102A84004FF492714843704740F2431148437047F2
:102A9400852148437047C0EBC01040007047862131
:102AA4004843704700EB801080007047C0EBC000C3
:102AB4007047F521484370474FF4A6714843704767
:102AC40040F22F11484370475B2148437047C0EBE5
:102AD4008010800070474FF497714843704740F26C
:102AE400311148437047DC2148437047CE214843A5
:102AF40070474FF4AD7148437047B3214843704762
:102B040040F2351148437047C0EBC00000017047E4
:102B14004FF49F7148437047D22148437047C00027
:102B240070478C2148437047F9214843704740F26D
:102B34004111484370470B21484370474FF4837158
:102B44004843704740F251114843704740F27D11A9
:102B540048437047A1214843704740F285114843D8
:102B64007047F7214843704740F24B114843704780
:102B740013214843704740F263114843704794213E
:102B8400484370474FF4BE71484370474FF4857112
:102B94004843704745214843704700EBC00040015B
:102BA4007047C0EB80107047D521484370474FF4FD
:102BB400A4714843704746214843704740F22311AB
:102BC4004843704740F24D114843704740F26B113F
:102BD4004843704700EB40004001704740F26D11DC
:102BE400484370474FF4C97148437047B421484380
:102BF40070478F21484370474FF4BB714843704777
:102C04004FF4A371484370474FF4C371484370476E
:102C1400ED214843704740F25711484370474FF441
:102C2400D6714843704740F24911484370478B219D
:102C3400484370474FF4B0714843704700EBC000FD
:102C44000001704740F2931148437047C0EB0010F5
:102C54004000704740F277114843704740F25911E1
:102C640048437047BF214843704740F2AD11484381
:102C7400704740F2A511484370474FF4CB71484365
:102C840070473721484370474FF48E71484370476B
:102C9400C0EB4010C0007047592148437047C7211A
:102CA4004843704740F22D114843704700EB8010B1
:102CB4004000704740F26111484370474FF49671E9
:102CC400484370474FF4B27148437047DE2148438C
:102CD400704734214843704740F2B111484370476C
:102CE4004FF4C471484370474FF4D0714843704760
:102CF40040F2971148437047F221484370474FF41C
:102D0400DD714843704700EB400040007047962156
:102D14004843704740F26511484370474FF4AC7123
:102D240048437047AF2148437047C0EBC000C00020
:102D3400704740F2B311484370474FF4B4714843AD
:102D44007047B8214843704740F2A3114843704785
:102D5400F6214843704700EB0010800070474FF4A1
:102D6400E771484370474FF4A171484370476521A8
:102D74004843704740F24F1148437047832148430A
:102D840070474FF4D4714843704740F233114843BD
:102D9400704740F2D511484370475121484370476A
:102DA4003921484370474FF4CD714843704740F28E
:102DB4001D1148437047D1214843704740F22911FF
:102DC4004843704740F25F11484370474FF4AB717A
:102DD40048437047B2214843704740F26911484361
:102DE40070474FF4C77148437047BD21484370474B
:102DF40040F2711148437047400170474FF4CA7163
:102E04004843704740F28F11484370474FF4DF71D5
:102E140048437047AB21484370474FF4D871484347
:102E2400704740F2B9114843704740F2DB11484300
:102E3400704740F2CB114843704740F29511484324
:102E4400704740F2D111484370474FF4E47148434E
:102E5400704740F2B5114843704740F2DD114843D2
:102E640070474FF4EE714843704740F27511484380
:102E7400704700EB401040007047D721484370472B
:102E84004FF4B6714843704740F2BB114843704752
:102E940040F2E511484370474FF4EF7148437047DF
:102EA40040F2791148437047C0EB0010C0007047EE
:102EB4004FF4BF7148437047C0EB401000017047A6
:102EC40040F2BD114843704740F215114843704722
:102ED4006721484370474FF4EA71484370474FF401
:102EE400F9714843704740F2DF11484370474FF48B
:102EF400A87148437047D021484370474FF4E871A4
:102F04004843704740F28B11484370474FF49A711D
:102F1400484370479F214843704700EB00207047A7
:102F2400BC21484370474FF4E3714843704740F273
:102F34007F11484370474FF4D7714843704740F2BC
:102F4400F5114843704740F2871148437047EA211E
:102F5400484370473321484370474F2148437047E3
:102F640040F2AF114843704740F2CF1148437047D5
:102F7400C0EB001080007047C0EBC01080007047A9
:102F84004FF4EC714843704740F281114843704755
:102F94004FF4E27148437047C0EBC00080017047B2
:102FA4004FF4FA714843704740F247114843704761
:102FB40040F2F711484370474FF48D71484370470E
:102FC400D321484370474FF494714843704740F20B
:102FD400E7114843704740F23B11484370472F21A3
:102FE400484370474FF4F47148437047C0EB0020E6
:102FF4004000704740F26711484370474FF4B57181
:103004004843704740F2F1114843704740F283113E
:103014004843704740F2C1114843704740F2FD11E4
:103024004843704740F2F911484370474FF48C719C
:1030340048437047C0EB4020704740027047B621B8
:10304400484370474FF4D271484370474FF4CF71EF
:103054004843704740F2E11148437047AC2148436C
:10306400704740F2EF11484370474FF4D171484321
:10307400704740F2D711484370474FF4DA71484320
:1030840070474FF4F6714843704740F2C311484308
:10309400704740F2FB114843704740F2BF11484368
:1030A40070474FF4E1714843704740F2EB114843D5
:1030B400704740F2F311484370474FF4FD714843A1
:1030C40070474FF4F771484370474FF4FB7148431E
:1030D4007047C0EB8010C00070474E2148437047D2
:1030E4004FF4F17148437047C0EB00104001704742
:1030F400C0EB002070473D214843704740F21F1148
:103104004843704753214843704740F203114843F2
:10311400704740F21911484370474FF49571484382
:10312400704700EB8000704740F2551148437047E8
:10313400DF214843704740F2D3114843704740F2BF
:1031440053114843704700EB4010800070474FF420
:10315400B871484370474FF4C1714843704700EB5E
:103164004000C001704740F2AB11484370474FF430
:10317400F571484370474FF4D5714843704740F2A6
:103184008D114843704740F28911484370474FF40A
:10319400C87148437047AE2148437047A92148434A
:1031A4007047A521484370474FF4C57148437047A1
:1031B40040F2D9114843704740F2ED11484370473B
:1031C40040F2C711484370474FF4EB7148437047CE
:1031D40040F2C5114843704740F2E9114843704733
:1031E4004FF4F2714843704740F2E311484370478B
:1031F4004FF4C67148437047A221484370474FF4C7
:10320400ED7148437047662148437047B0214843F5
:1032140070474FF4F37148437047FA2148437047AD
:103224004FF4E57148437047DD214843704740F24D
:103234006F114843704740F29111484370474FF46F
:10324400BC71484370474FF4DC714843704740F207
:10325400C911484370474FF49D7148437047E321B7
:10326400484370474FF4A971484370472E2148439F
:1032740070474FF4C271484370474FF4E6714843B6
:1032840070474FF4E9714843704740F2B71148431F
:1032940070478A21484370474FF4B97148437047D7
:1032A40040F2A911484370474FF4DB71484370471B
:1032B4004FF4CC714843704740F2CD1148437047F6
:1032C40040F29911484370474FF4D971484370470D
:1032D40040F29B11484370474FF49971484370473B
:1032E40000EB8000400170474FF4DE7148437047A3
:1032F4009221484370474FF4B3714843704740F2FA
:10330400A1114843704740F2371148437047CA211E
:1033140048437047F321484370474FF4CE71484304
:103324007047C821484370474FF49B714843704726
:1033340000EB0010C00070474FF4BD714843704764
:10334400E521484370474FF4D3714843704740F236
:10335400A7114843704740F273114843704740F245
:103364003D11484370474FF49E714843704777219D
:1033740048437047DB21484370474FF4B7714843D3
:10338400704740F29F11484370477121484370478A
:1033940040F23911484370474FF4AA7148437047CB
:1033A4006F21484370474FF4AF71484370474FF45F
:1033B4009C7148437047D4214843704740F27B11C5
:1033C4004843704700EB4000C000704740F29D1135
:1033D40048437047A72148437047BB21484370477F
:1033E40000EB8000800170474FF4897148437047B7
:1033F400C0EBC01070474FF4A57148437047BE211D
:103404004843704798214843704700EB00107047C9
:103414004FF4A771484370474FF48771484370478E
:1034240040F20911484370474FF4A2714843704772
:1034340040F23F1148437047E721484370472B212E
:10344400484370475521484370474FF48B714843B4
:10345400704740F245114843704740F22B114843EE
:1034640070474FF4BA714843704740F225114843FE
:10347400704700EB4000800170474FF4AE71484341
:103484007047B7214843704700EBC0008000704785
:103494004FF4B17148437047C32148437047C0EBB0
:1034A400C000400170474FF4987148437047C0EB27
:1034B4000010704715214843704740F20B114843F0
:1034C400704740F25D114843704700EB4010C00064
:1034D400704740F25B1148437047B9214843704735
:1034E400B52148437047CC21484370473B214843AA
:1034F40070474FF48F7148437047EB21484370473E
:1035040040F20F11484370474FF49371484370479A
:103514004D214843704740F22711484370474FF408
:10352400867148437047BA214843704700EB8000D6
:1035340040007047AA2148437047D9214843704747
:103544004C2148437047E4214843704726214843AF
:10355400704740F21B1148437047A4214843704709
:10356400A82148437047972148437047272148437F
:1035740070474FF48A7148437047C52148437047E8
:103584006821484370476421484370475C2148439D
:103594007047C4214843704740F20D1148437047B7
:1035A400192148437047E22148437047EE214843BC
:1035B4007047FB2148437047E621484370472A215E
:1035C400484370475E214843704769214843704728
:1035D400F121484370476121484370472D214843F6
:1035E40070475D2148437047C0EB001000017047ED
:1035F400FD2148437047E9214843704700EB8010A0
:1036040070474721484370473A2148437047C921CE
:1036140048437047252148437047CF2148437047AA
:10362400C6214843704700EBC000704700EB4010D0
:103634007047E12148437047C0EB401070474A216E
:10364400484370477B2148437047C1214843704732
:1036540000EBC0107047B12148437047AD21484387
:1036640070479921484370479C21484370479521EE
:1036740048437047C0EB8010400070479121484395
:1036840070470D21484370479D214843704762218C
:103694004843704780017047C0EBC000800070470A
:1036A4005421484370471A214843704757214843DF
:1036B40070472C214843704776214843704700EBFC
:1036C40040000001704700EBC000C000704700EBF1
:1036D4000010400070475A2148437047C0EBC000B7
:1036E4004000704729214843704780B56F4682B037
:1036F400FEF7E6F940F22B00C0F2000027F8020CB6
:10370400B81E02F078F9FEF72BFA02F08BF980B5B7
:103714006F4682B040F20100C0F2000027F8020CAC
:10372400B81E02F033F902B080BDD0B502AF82B04A
:10373400044640F20600C0F2000027F80A0CA7F184
:103744000A0002F023F9D4E9000102F00FF902B0F3
:10375400D0BDD0B502AF82B0044640F20500C0F23D
:10376400000027F80A0CA7F10A0002F00FF920461E
:1037740002F0E4F802B0D0BDD0B502AF82B0044686
:1037840040F20300C0F2000027F80A0CA7F10A0077
:1037940002F0FCF8204602F0D1F802B0D0BDD4D437
:1037A400F0B503AF2DE9000FCFB04FF60C4940F64A
:1037B4000046CFF6FF79C4F20266044656F80900C3
:1037C40094F83310159120F4403040EA014046F853
:1037D400090056F8090000040CD456F80900000446
:1037E4005CBF56F809005FEA004003D456F80900AC
:1037F4000004EED594F82C00102834D1002294F85B
:103804002D0010286CD1002194F856000A9101284B
:1038140040F0A1804FF4807030603068400509D4D6
:10382400306840055CBF30685FEA405002D43068BD
:103834004005F2D50125207F032800F091801599D9
:10384400D4F818B0002900F08D804FF28101C0F245
:10385400FA218B45C0F08D80FEF732F940F2140056
:10386400C0F20000B1E21599014300F0A883316869
:1038740001F0050101290ED1316801F0050101298A
:1038840002BF316801F00501012904D1316801F05A
:1038940005010129EBD0B1684FF6FF72C0F67F72C3
:1038A400114041EA007101F50001B160012131606C
:1038B4003168490709D4316849075CBF31685FEA58
:1038C400417102D431684907F2D547F2A42101229B
:1038D400C0F6000151F820C094F82D00102892D0B1
:1038E4001599014300F07283316801F03001102909
:1038F4000ED1316801F03001102902BF316801F0A6
:103904003001102904D1316801F030011029EBD0C5
:10391400B16821F0786101EB006101F50001B1604B
:10392400102131603168890609D4316889065CBF89
:1039340031685FEA816102D431688906F2D547F2C1
:10394400A421C0F6000151F8201094F856000A9101
:1039540001283FF45FAF0025207F03287FF46FAF79
:1039640000231FE047F64101C0F27D118B4580F032
:1039740046834FF4A021002808BF4FF48031022869
:1039840028BF01F5801131603068800309D43068A4
:1039940080035CBF30685FEA803002D43068800303
:1039A400F2D5012394F8341010910229CDE913BC07
:1039B40034D0306840F4805030603068800409D4DA
:1039C400306880045CBF30685FEA804002D43068AD
:1039D4008004F2D51098C00720D0AB469846924692
:1039E40001F033FD054647F25830C0F6000000F000
:1039F40077FD284601F030FD46F200005D46C4F232
:103A04000000DDE913BC41680222434662F31D71E4
:103A140041600168524641F06001016042F2004099
:103A24000E95C0F2F400DDF854A0CDE9165016ADA1
:103A34001CA890461A9200210F932246CDE9183B08
:103A44002B46CDF86CC0CDF800A000F0E7FAD4E91D
:103A540002012EAACDE92E0122A801212B46CDF880
:103A640000A000F0DBFAD4E904012EAACDE92E016E
:103A740028A802212B46CDF800A000F0CFFA94F834
:103A84003200DFE800F0023D0D19DDF850C0B8F156
:103A9400000F0AD147F25420C0F6000001F0CEFF17
:103AA4000F99DC46002900F0988243F6C031C0F239
:103AB40047318C450CD22BE02099002900F09382E9
:103AC400DDF884C043F6C031C0F247318C451FD3C2
:103AD40056F8091041F4802146F8091056F80910E7
:103AE400490415D456F8091049045CBF56F8091066
:103AF4005FEA41410CD456F809104904EED507E0B9
:103B04000E9942F2004CC0F2F40C002900F07182CC
:103B1400159B46F60042C0F2DC22DFE803F0022FD8
:103B24000B2041F600320021C0F2B702944588BF51
:103B3400012130E04CF28131C0F2C9118C4523D30C
:103B440048F20171C0F293318C4515D344F68122B9
:103B54000321C0F25D52944538BF02211BE044F6B4
:103B64000001C0F2E8118C450ED949F20101C0F2FE
:103B7400D0318C4580F0048201210CE043F20161D4
:103B8400C0F26E118C4501D2002104E00132022101
:103B9400944538BF012142F20002C4F202021368C4
:103BA40023F00F0319441160F16921F0030101446A
:103BB400F161F169C1F3810181420ED0F169C1F370
:103BC400810181421EBFF169C1F38101814204D0A8
:103BD400F169C1F381018142EBD140F6204640F204
:103BE4007F75C4F20266306894F82E3094F82F2062
:103BF400A84394F8301018440F2B40EA021040EA0E
:103C040001203060756894F8310025F0700545EAAC
:103C14000015756000F2FA81E246DFE813F0270030
:103C2400F701F701F701F701F701F701F7011000B8
:103C34001C0022001600190025001F0013004FEA83
:103C44005C0A13E04FEA5C2A10E04FEA1C1A0DE00C
:103C54004FEA9C1A0AE04FEA9C0A07E04FEA1C2A42
:103C640004E04FEADC0A01E04FEADC1A159D47F252
:103C7400E423C0F6000353F825309A4500F29181FD
:103C8400072A00F295815646DFE812F013009201EC
:103C94009201920108000E0011000B004FEA5A062F
:103CA40007E04FEA1A1604E04FEA9A0601E04FEAE9
:103CB400DA06072900F27C815346DFE811F013008D
:103CC40079017901790108000E0011000B004FEA17
:103CD4005A0307E04FEA1A1304E04FEA9A0301E09B
:103CE4004FEADA030728CDE90C63CDF850C000F29F
:103CF4005F815546DFE810F013005C015C015C0154
:103D040008000E0011000B004FEA5A0507E04FEAC5
:103D14001A1504E04FEA9A0501E04FEADA0504F1C6
:103D2400200001F019F9059094F82900029004F19B
:103D340035000B91266A94F8259000F050FDBAF1F5
:103D4400000F3CD02D9809902C9803902898069049
:103D5400299808902A9804902798119026980790FB
:103D6400DDE92230DDF8ACB01590DDE92402DDE9AF
:103D74001C1E12920F9ADDE91E4872B1DDF84CC088
:103D8400BCF1010F18BFBCF1000F18D04FEA5C0260
:103D9400B9F1020F06D036B911E000221392B9F13D
:103DA400020FF8D10026DDF83090DDF834C0B9F107
:103DB400000F04D0BCF1000F18BF002D0ED1FDF789
:103DC4007FFE40F21100C0F20000ADF8B8002EA84A
:103DD40001F011FEFDF7C4FE01F024FE59B1BEF15D
:103DE400010F18BFBEF1000FE9D04FEA5E013CB9E4
:103DF4004FF0000807E04FF0000E0021002CF7D030
:103E0400B8F1000FDBD00F911BB315990029D6D060
:103E1400019618B312980B9B0028DDE90804CED054
:103E24000799164619B31199149A0029C7D006990F
:103E340019B30028C3D0049919B3BBF1000FBED045
:103E4400039919B3002CBAD00599C90722D013BB22
:103E5400B5E70021159100280196DBD100200B9BCA
:103E64001290DDE90804079916460029DBD10021E8
:103E7400149A119106990029DBD100200499002994
:103E8400DBD14FF0000B03990029DBD10024059905
:103E9400C907DCD10023002A3FF491AFCDE9460BDA
:103EA4000021119845901298449015984C9242F232
:103EB4000042CDE94A11C0F2F402CDE942800F98E4
:103EC40041900A983A900298CDE94843CDE93F5E83
:103ED4000028CDF8F4C0CDF8EC9018BF4FF4FA40A8
:103EE40039900198CDE937100E98002808BF024692
:103EF4001398CDE92E1146F60041CDE93462C0F2A3
:103F0400DC21CDE932A01098CDE930AA023818BFDF
:103F140008463690BCEB0A0018BF01200CFA00F0EA
:103F24003E90B9EB0A0018BF012009FA00F03C905A
:103F3400FDF7C6FD40F22100C0F2000027F81E0C78
:103F4400A7F11E0001F057FD40F22D00C0F2000061
:103F540027F81E0CA7F11E0001F018FD2EAC204618
:103F640000F044FEFDF7FCFD40F25C002146C2F285
:103F740008007C2202F0FDFC4FB0BDE8000FF0BD4C
:103F84004DF60101C0F2B8518C4501D2022102E67E
:103F940042F201020421C0F2A172944538BF032108
:103FA400F9E5FDF78DFD40F21600C0F200000CE7C4
:103FB400FDF786FD40F22C00C0F2000005E7FDF796
:103FC4007FFD40F21200C0F20000FEE6FDF778FD2E
:103FD40040F21300C0F20000F7E647F27420C0F686
:103FE400000001F02BFD47F28420C0F6000001F030
:103FF40025FD47F26420C0F6000001F01FFDFDF727
:104004005FFD40F21500C0F20000DEE6FDF758FD4A
:1040140040F22A00C0F20000D7E6D4D4F0B503AFD2
:104024002DE9000F8FB040F6004A8B46C4F2026AB5
:104034004900DAF80060C9B24FF08075864605FA87
:1040440001FC26EA0C06B868CAF800604FF0007656
:1040540006FA01F8DAF8001011EA080F0ED0DAF8BF
:10406400001011EA080F1CBFDAF8001011EA080F5B
:1040740004D0DAF8001011EA080FEBD19179042981
:1040840007D14FF0000C1022CEF800C00823002006
:10409400E2E1D2F8009052680A924FEA196141EACB
:1040A40002210C914FEA1941140C41EA02410B918F
:1040B400110AC2F30742DFE812F0E50104000A0026
:1040C40014001A69002A00F0EB8114330EE053F84F
:1040D400042B5AB9FDF7F4FC40F21900C0F20000B9
:1040E400EBE19A68002A00F0E2810C331B68CDB240
:1040F4001E46DFE805F05908232A142E3F2C521ED1
:104104004A0F19360A285E084EE048F68901C8F6B7
:1041140088013EE04AF6AB21CAF6AA2139E04CF602
:10412400CD41CCF6CC4118E04EF64F41C4F6C46103
:1041340013E04CF6CD41CCF6CC412AE04AF6AB2153
:10414400CAF6AA212DE01E092EE09E082CE0DE0806
:104154002AE04AF6AB21CAF6AA21A3FB011296086B
:1041640022E042F293425908C9F24922A1FB021209
:10417400960819E044F62511C2F29241A3FB0112FC
:10418400991A02EB51018E080EE048F6A331CBF6E2
:104194002E21A3FB0112D60806E048F63961C3F6C6
:1041A400E301A3FB011256084DF6FF314EF2FF4224
:1041B400CFF60B71CFF6487231449142C0F054816E
:1041C40043F6BF310594C0F2473109964E1CC0B284
:1041D400009346F28064CDF810C0C1F2AB34CDE94F
:1041E40006EBDFE810F0560111000400090047F265
:1041F4008076C0F28E6603E04DF20046C0F6654656
:104204004CF60004C2F26C0409984946FEF758F9CA
:10421400834642F20000C0F2A1708345C0F02B81B6
:10422400A34500F228810B99C8B280280D9005D0CF
:104234005846FDF72FFD0446012000E000200C99AC
:10424400CDE90205CAB2802A0C9206D05846FDF781
:1042540021FD08900120019001E0002001900A99BD
:104264000025C8B280280B9005D05846FDF712FDF2
:104274004FF0010C01E04FF0000CDDE906EBB44215
:1042840007944FF000044FF0000288BF0124B042AD
:1042940088BF01220B99B1F1800318BF012308994B
:1042A400B14288BF01250C99803918BF01210D9EA8
:1042B400803E18BF0126264204D1294008BF13EAD4
:1042C40002010ED0FDF7FCFB40F21E00C0F200001C
:1042D400ADF838000EA801F08EFBFDF741FC01F0AB
:1042E400A1FB059C5FFA8BF3099E4BB1DDF80CB082
:1042F400022B0A990CBF0AF144020AF13C0204E0C1
:104304000AF13402DDF80CB00A990B9D6FF35F29B2
:10431400802D18BF49EA01690D99802918BF49EA1F
:1043240041290C99802918BF49EA014941F2012128
:10433400C2F80090C0F27A0103228E4238BF0022F4
:10434400022B18D0012B2DD10D9BE1B2802B18BF6D
:1043540001F580310C9B802B18BF01F500310B9BBC
:10436400802B18BF01F5802141EA0B2141EA82012B
:10437400CAF82C104AE00D9BE1B2802B18BF01F55E
:1043840080310C9B802B18BF01F500310B9B802BD7
:1043940018BF01F5802141EA0B2141EA8201CAF8E4
:1043A400301033E0BCF1000F00F094800D9BE1B2BB
:1043B400802B18BF01F580310C9B802B18BF01F5B1
:1043C40000310B9B802B18BF01F5802141EA0B21A2
:1043D400009C41EA820144F60102C0F2E8129442D0
:1043E40042F201424FF40053C0F2F40238BF4FF4DA
:1043F400805394420A4628BF1A4343F6BF33C0F29F
:104404004733984298BF0A46CAF82820029BDAF834
:104414000010049A1143CAF80010079ADAF8001041
:1044240011EA080F0ED1DAF8001011EA080F04BFE0
:10443400DAF8001011EA080F04D1DAF8001011EAD2
:10444400080FEBD00199CEE900321422CEF80810FF
:1044540010230899CEF80C104EF803C04EF8020051
:104464000FB0BDE8000FF0BDFDF72AFB40F21B00C2
:10447400C0F200002CE7FDF723FB40F21D00C0F260
:10448400000025E7FDF71CFB40F21700C0F2000016
:104494001EE7FDF715FB40F21C00C0F2000017E711
:1044A400FDF70EFB40F21A00C0F2000005E0FDF734
:1044B40007FB40F21800C0F20000ADF838000EA867
:1044C40001F099FAA7F11D00FFF721F9FDF748FB68
:1044D40001F0A8FA47F29420C0F6000001F0AEFA09
:1044E400B0B502AF82B00179FF290CD00229009146
:1044F40041D240F2F402C2F20802535C0133535435
:10450400D9B2012935D8017840F60044C4F20264D6
:10451400FF290ED0437854F821C003F01F0E012365
:1045240003FA0EF304EB810E43EA0C0344F8213042
:10453400FFE783784FF0010CC278FF2902F01F02D5
:1045440054F823500CFA02F242EA050244F82320FC
:1045540054F82320BFF34F8F1FBF4078DEF80010BC
:1045640000F01F000CFA00F01CBF21EA0000CEF896
:10457400000002B0B0BDFDF7A3FA40F22200C0F281
:10458400000027F80A0CA7F10A0001F034FA684683
:10459400FFF7DFF8FDF7E4FA01F044FAB0B502AF33
:1045A400044600F052FF05462046FFF799FF2846CF
:1045B400BDE8B04000F050BFD0B502AF044635307E
:1045C400212102F08DF9002040F2044184F85600C4
:1045D40084F83400C4F82E000420A075A073A071E0
:1045E4004FF4407060864FF481702085022084F877
:1045F400250040F20010A1850321C0F201002177BB
:10460400A065D0BDF0B503AF4DF8048D82B005466A
:1046140000F01BFF044640F2F600C2F208000178E5
:10462400012900F0CC804FF0010895F8591080F86A
:10463400008044F20400CEF20400026822F0060274
:1046440042EA410242EA8101016047F2F420C0F6E5
:104654000000FFF745FF47F2F920C0F60000FFF71E
:104664003FFF47F2FE20C0F60000FFF739FF40F697
:10467400100095F85B20C4F2026095F85A100368A4
:1046840082F001024FF0005623F0005343EA4171D7
:104694000160C1694EF20813CEF2000321F001015A
:1046A4001144C16140F68C41C4F202610A6842F0CF
:1046B40001020A600A6842F002020A600A6842F0D3
:1046C40004020A600A6842F008020A600A6842F0BA
:1046D40010020A600A6842F020020A600A6842F086
:1046E40040020A600A6842F080020A600A6842F4E2
:1046F40080720A600A6842F400720A604EF21D4237
:1047040095F85810CEF20002117043F8086C4FF07F
:104714008046517043F8086C4FF4802682F83510B7
:104724001E604FF4002682F836101E604FF4801687
:1047340082F837101E604FF4001682F838101E609D
:104744004FF4800682F839101E604FF4000682F898
:104754003A101E604FF00046917043F8086C022630
:10476400D17043F8048C117143F8046C0426517120
:1047740043F8046C0826917143F8046C1026D17137
:1047840043F8046C4FF4803682F833101E6082F8CC
:1047940034104FF400311960D0F8781441F001015D
:1047A400C0F878142846FEF7FBFF00F0A0F8204676
:1047B40002B05DF8048BBDE8F04000F04DBEFDF79B
:1047C4007FF940F22400C0F2000027F8120CA7F190
:1047D400120001F010F9FDF7C3F901F023F9F0B567
:1047E40003AF4DF804BD40F6E04C467CC4F2026CC5
:1047F4004379DCF8001040F2000E8479CFF2C00E49
:1048040001EA0E01C57941EA0361027A41EA842191
:10481400437A41EA0531847A41EA8231C57A41EA30
:104824008361027B41EA8441437B41EA0551847BF5
:1048340041EA0241057C41EA8311C27B41EA042139
:1048440011431F2241EA8501C3F2080241EA06111D
:10485400CCF80010DCF8041003781140827C467810
:1048640041EAC331C37C41EA8251027D857841EA41
:104874000361437D41EA8261827D41EA8641C67DCE
:1048840041EA0351037F41EA8271427F41EA0631E2
:10489400C47841EAC521067E41EA431140F220333F
:1048A40041EA0221CFF6F87341EA843101EB064173
:1048B400CCF80410DCF80810827F19400379467E96
:1048C40041EA0231857EC47E90F82020C07F41EA0F
:1048D400004040EAC33040EA861040EA8520104494
:1048E40000EBC400CCF808005DF804BBF0BD80B553
:1048F4006F4682B047F20330C0F60000FFF7F0FDC8
:1049040040F25C00C2F20800016C91B344F2000072
:10491400C4F20100026822F0010202600022426235
:104924004FF0FF3202EBD1310091B1F5803F3BD221
:1049340001854FF6FF71C1622022016841F0040134
:10494400016001214161016821F0040101604FF41B
:10495400004141630321C1604EF20811CEF200010F
:10496400C1F880210A60016841F00101016002B0D0
:1049740080BDFDF7A5F840F22900C0F2000027F839
:10498400020CB81E01F037F847F2F810C0F6000028
:10499400FEF7CBFE47F2E810C0F60000FEF7C5FEB6
:1049A400FDF7DEF801F03EF8FDF78AF840F2230047
:1049B400C0F20000ADF8040001A801F01CF868463C
:1049C400FEF7DAFEFDF7CCF801F02CF840F2E00037
:1049D40044F22401C2F20800C4F20101006909682A
:1049E40000F0010289B281EAC231420C11EBC030FD
:1049F40042F100017047D0B502AF00F026FD40F24D
:104A0400D801C2F208010C78002C04BF01220A70FC
:104A140000F022FDB4FA84F000214009D0BDF0B5C5
:104A240003AF4DF804BD40F2E00614460D46C2F251
:104A3400080600F00AFDB46035605DF804BBBDE80B
:104A4400F04000F009BDF0B503AF4DF8048D40F21D
:104A540038081C461546C2F2000800F0F6FC40F285
:104A6400E00C44F20C01C8E90054C2F2080CDCF872
:104A74001030C4F201018E6903F00102B6B286EA75
:104A8400C2325E0C12EBC33346F100065A1B76EBBE
:104A9400040226D2AAB2EB1ACA6264EB06060A68BA
:104AA400B3F5404376F1000322F0040238BF043228
:104AB4000A60DCF810208B6902F001069BB283EADD
:104AC400C633560C13EBC23246F10003521B73EB90
:104AD400040206D2012400F0BFFC20465DF8048BDA
:104AE400F0BD0A68002422F004020A604FF0FF318E
:104AF400C8E9001100F0B0FC20465DF8048BF0BD5D
:104B0400F0B503AF2DE9000F81B000F09EFC44F234
:104B14000C0640F2E00BC4F2010681467468C2F24E
:104B2400080BD6F800A0E0437060E00704D1A007AA
:104B340023D4600742D451E0DBF81000451CCBF8C5
:104B440010504FEA554800F080FC40F238024FF410
:104B54004043C2F200023168D2E9002C13EBC533A2
:104B640048F10005D21A7CEB050238BF41F004017C
:104B7400316000F071FCA007DBD5DBF81000451CA8
:104B8400CBF810504FEA554800F05FFC40F2380271
:104B94004FF44043C2F200023168D2E9002C13EB17
:104BA400C53348F10005D21A7CEB050238BF41F049
:104BB4000401316000F050FC60070FD51AF00400C6
:104BC4000CD0DBF8001040F23803DBF808004FF09B
:104BD400FF32C2F20003C3E900228847484601B00D
:104BE400BDE8000FBDE8F04000F036BCB0B502AF40
:104BF40082B040F210050446A7F10A00C0F2000595
:104C040027F80A5C00F0C2FE204600F097FEA7F1E8
:104C14000A0027F80A5C00F0B9FE201D00F08EFEA1
:104C2400A7F10A0027F80A5C00F0B0FE04F10800BE
:104C340000F084FEA7F10A0027F80A5C00F0A6FE43
:104C440004F10C0000F07AFEA7F10A0027F80A5CD0
:104C540000F09CFE04F1100000F070FEA7F10A00C1
:104C640027F80A5C00F092FE04F1140000F066FEDE
:104C7400A7F10A0027F80A5C00F088FE04F1180086
:104C840000F05CFEA7F10A0027F80A5C00F07EFE43
:104C940004F11C0000F052FEA7F10A0027F80A5C98
:104CA40000F074FE04F1200000F048FEA7F10A00B1
:104CB40027F80A5C00F06AFE04F1240000F03EFECE
:104CC400A7F10A0027F80A5C00F060FE04F128004E
:104CD40000F034FEA7F10A0027F80A5C00F056FE43
:104CE40004F12C0000F02AFEA7F10A0027F80A5C60
:104CF40000F04CFE04F1300000F020FEA7F10A00A1
:104D040027F80A5C00F042FE04F1340000F016FEBD
:104D1400A7F10A0027F80A5C00F038FE04F1380015
:104D240000F00CFEA7F10A0027F80A5C00F02EFE42
:104D340004F13C0000F002FEA7F10A0027F80A5C27
:104D440000F024FE04F1400000F0F8FDA7F10A0091
:104D540027F80A5C00F01AFE04F1440000F0EEFDAE
:104D6400A7F10A0027F80A5C00F010FE04F14800DD
:104D740000F0E4FDA7F10A0027F80A5C00F006FE43
:104D840004F14C0000F0DAFDA7F10A0027F80A5CF0
:104D940000F0FCFD04F1500000F0D0FDA7F10A0082
:104DA40027F80A5C00F0F2FD04F1540000F0C6FD9F
:104DB400A7F10A0027F80A5C00F0E8FD04F15800A6
:104DC40000F0BCFDA7F10A0027F80A5C00F0DEFD44
:104DD40004F15C0000F0B2FDA7F10A0027F80A5CB8
:104DE40000F0D4FD04F1600000F0A8FDA7F10A0072
:104DF40027F80A5C00F0CAFD04F1640000F09EFD8F
:104E0400A7F10A0027F80A5C00F0C0FD04F168006D
:104E140000F094FDA7F10A0027F80A5C00F0B6FD43
:104E240004F16C0000F08AFDA7F10A0027F80A5C7F
:104E340000F0ACFD04F1700000F080FDA7F10A0061
:104E440027F80A5C00F0A2FD04F1740000F076FD7E
:104E5400A7F10A0027F80A5C00F098FD04F1780035
:104E640000F06CFD02B0B0BD47F20320C0F60000B4
:104E740000F01EBA47F20220C0F6000000F018BA93
:104E840047F20120C0F6000000F012BA47F20020F9
:104E9400C0F6000000F00CBA47F20D20C0F6000086
:104EA40000F006BA47F20C20C0F6000000F000BA89
:104EB40047F20B20C0F6000000F0FAB947F20A20CE
:104EC400C0F6000000F0F4B947F20920C0F6000073
:104ED40000F0EEB947F20820C0F6000000F0E8B98F
:104EE40047F20720C0F6000000F0E2B947F20620BE
:104EF400C0F6000000F0DCB947F21320C0F6000051
:104F040000F0D6B947F21220C0F6000000F0D0B984
:104F140047F21120C0F6000000F0CAB947F2102091
:104F2400C0F6000000F0C4B947F20F20C0F600003C
:104F340000F0BEB947F20E20C0F6000000F0B8B988
:104F440047F20520C0F6000000F0B2B947F2042091
:104F5400C0F6000000F0ACB9F0B503AF2DE9000FC6
:104F640083B090F808E0F146DFE81EF01500040075
:104F74000D0023014179022900F02981D0F8008035
:104F84004FF0010907E0417A002900F019814FF040
:104F940001094FF4FA484FF6383440F6F042CFF6A0
:104FA400FF74C4F20262115990F804C090F805B07D
:104FB40041F00101115165461159C90709D111592F
:104FC400C90704BF11595FEAC17102D11159C90758
:104FD400F2D0E9B2BBF1020FA1F1040108BF04252C
:104FE400B1FA81F1447ABBF1020018BF01204909EA
:104FF40000EA010A84B1106840F080601060106813
:10500400000109D4106800015CBF10685FEA001059
:1050140002D410680001F2D51468BBF1020118BF74
:105024000121012626EA040073464840A1B2BEF1DC
:10503400000F18BF012386EAD131BBF1020F81EAC8
:105044000301C4F30123A3EB0E03B3FA83F34FEA82
:10505400531301EA030100EA010004F0040186EAA3
:10506400910181EA0A0101EA00011FBFE0B286EA68
:10507400D01080EA0B000140E8B204286DD1002969
:1050840074D11168BBF1020F41F4803111601168D1
:1050940021F48031116034D013680121BCF1040F74
:1050A40008BF05210CF0030623F01D05042818BFD2
:1050B40045EAC60323F00400084310601068800723
:1050C40009D4106880075CBF10685FEA807002D45E
:1050D40010688007F2D510681BF0010120F08000F1
:1050E40040EAC11010600CD01068000509D41068A3
:1050F40000055CBF10685FEA005002D41068000528
:10510400F2D5BEF1000F0AD01068810665D448F2CA
:105114002031884340EA0E2000F5004010601068FA
:105124000190FCF7CDFC40F23200C0F2000027F8F9
:105134001E0CA7F11E0000F05EFC40F20300C0F25A
:10514400000027F81E0CA7F11E0000F01FFC01A8A8
:1051540000F0F4FBFCF704FD25E0C4F3C1031B1AC3
:10516400B3FA83F35B090B423FF48BAF10680190F1
:10517400FCF7A6FC40F23000C0F2000027F81E0C39
:10518400A7F11E0000F037FC40F20300C0F200005B
:1051940027F81E0CA7F11E0000F0F8FB01A800F090
:1051A400CDFBFCF7DDFC4846414603B0BDE8000FEB
:1051B400F0BDFCF785FC40F22F00C0F2000012E0C5
:1051C400FCF77EFC40F22E00C0F200000BE047F238
:1051D4004830C0F6000000F031FCFCF771FC40F2EE
:1051E4003100C0F20000ADF8040001A800F003FC97
:1051F400FCF7B6FC00F016FC40EA01407047F0B53D
:1052040003AF4DF8048D042303EA500E00F0F003BD
:1052140040F2000CC4F2022C0F264CEA831401F075
:105224000F0174444FF01C0E0EEA800540F20C0E80
:10523400D4F82080C4F2022EAE40A94028EA060623
:1052440000F00F05314321629901C2F301235EF896
:1052540001606800032484408340A64333434EF82E
:10526400013040F2040EC4F2022E01235EF8016004
:10527400AB4026EA030302F00106C2F3074206FA32
:1052840005F52B434EF801300823C4F202235E587F
:105294008240A64332435A5002235CF8012003FAA9
:1052A40000F0A24310434CF801005DF8048BF0BDFC
:1052B400B0B502AF84B00078142825D247F2F83193
:1052C400C0F6000101EBC00555F8043F102B22D2B3
:1052D40051F8302002EBC3110B6E5C0526D4DC04BC
:1052E40033D413F4045F0DD040F2F8025031C2F20B
:1052F400080202EBC00000224A6104B0BDE8B040DD
:1053040000F084B804B0B0BD47F2D8421421C0F60E
:10531400000200F039FC47F25D3047F2E832C0F693
:105324000000C0F600021D2100F0FDFB0092FCF716
:10533400C7FB40F22000C0F2000027F8120CA7F1CE
:10534400120000F058FB68460DE00292FCF7B8FB2F
:1053540040F21F00C0F2000027F80A0CA7F10A006F
:1053640000F049FB02A8FEF707FA2846FEF7F1F918
:10537400FCF7F6FB00F056FB80B56F4682B040F2B6
:105384000100C0F2000027F8020CB81E00F0FEFA7B
:1053940002B080BD00F079BAD0B502AF82B0044645
:1053A40000F073FAD4E90032C41A71EB020403D397
:1053B400C01A914102B0D0BDFCF782FB40F2330029
:1053C400C0F2000027F80A0CA7F10A0000F013FB52
:1053D400FFF7D2FFFCF7C4FB00F024FB80B56F4657
:1053E40082B000F052FA43F60952A0FB020301FB1B
:1053F4000231400A40EAC1500090480A01906846D0
:1054040000F0A7FA02B080BDFEE77047F0B503AF25
:105414004DF8048D054600F018F8D5E9004680469D
:105424000020286054B1A16830468847D5E90010AF
:10543400C5E9004600291CBFC968884740465DF895
:10544400048BBDE8F04000F007B8EFF310800121B1
:1054540072B621EA00007047002808BF704762B6A0
:10546400704780B56F4682B040F20100C0F2000080
:1054740027F8020CB81E00F089FA02B080BDD0B53E
:1054840002AF82B0044600F002FAC0071FBF00203A
:105494004FF0FF32C4E90002A0601EBF217302B0C6
:1054A400D0BDFCF70DFB40F23C00C0F2000027F831
:1054B4000A0CA7F10A0000F09EFAFFF7D2FFFCF7EE
:1054C4004FFB00F0AFFA80B56F4640BF80BD80B59A
:1054D4006F460861D0E8AF2F04E00023BFF32F8F9D
:1054E400DB074FD1CA60D0E8EFCF94450AD1C0E8BA
:1054F400E31F002B4FF0000308BF4FF0FF33DB071F
:1055040005D040E00023BFF32F8FDB073BD1C1F868
:105514000CC0D0E8EF2F62450AD1C0E8E31F002B8E
:105524004FF0000308BF4FF0FF33DB0705D029E03D
:105534000023BFF32F8FDB0724D1CA60D0E8EFCF5D
:1055440094450AD1C0E8E31F002B4FF0000308BFC5
:105554004FF0FF33DB0705D015E00023BFF32F8F97
:10556400DB0710D1C1F80CC0D0E8EF2F6245B4D1ED
:10557400C0E8E31F002B4FF0000308BF4FF0FF33D8
:10558400DB07AFD06246002A18BF80BD40BF80BD94
:105594000246007B45F2CB41C0F6000100F079B928
:1055A400F0B503AF2DE9000F81B0834600264FF01C
:1055B400010A40F201190830009008E00A462B461F
:1055C4009BF80C0000F067F9002840F05A8100F0C5
:1055D4005CF9009A1368002B00F08080DDF800C0AD
:1055E40005E003F1180CDCF80030002B76D0D3E989
:1055F4000025821A71EB0502F3D303F1080252E885
:10560400005F05EA0904012C5DD145F4807542E888
:105614000054002CF3D11D69D5E8AF4F04E00022FB
:10562400BFF32F8FD20750D1DC60D5E8EF2FA24211
:105634000AD1C5E8E43F002C4FF0000408BF4FF046
:10564400FF34E40705D040E00024BFF32F8FE407C4
:105654003BD1DA60D5E8EF4F94420AD1C5E8E23F86
:10566400002A4FF0000208BF4FF0FF32D20705D0E6
:105674002BE00022BFF32F8FD20726D1DC60D5E8C0
:10568400EF2FA2420AD1C5E8E43F002C4FF00004FA
:1056940008BF4FF0FF34E40705D016E00024BFF341
:1056A4002F8FE40711D1DA60D5E8EF4F9442B6D1D9
:1056B400C5E8E23F002A4FF0000208BF4FF0FF3276
:1056C400D207B1D001E0BFF32F8F9A69CCF8002044
:1056D4009E72DCF80030002B7FF489AFDBE8EF8F9B
:1056E400CBE8E06F0028F9D1B8F1000F4FF0FF3E8E
:1056F4000ED100984FF0FF324FF0FF3301680029BC
:105704003FF45EAFDDF800C031E0B8F1000FF0D037
:105714004546D8F80C80C5E900EE287A6E72002858
:10572400F3D0696928468847D5E900014FF0FF3E68
:1057340081EA0E0180EA0E000843E6D005F10A0072
:10574400D0E84F1FC0E842AF002AF9D10029DCD1CC
:1057540000990868A8610D60D7E7A0690026CCF815
:105764000000A672DCF8001000293FF429AFD1E94B
:10577400004585EA0E0084EA0E063043161B73EBDF
:1057840005064FF0000638BF0126002E04BF2B4645
:10579400224630B101F1180C0026DCF8001051B992
:1057A4000EE788690026CCF800008E72DCF8001041
:1057B40000293FF405AFD1E9006080EA0E0586EACE
:1057C4000E042543941B73EB00044FF0000438BF10
:1057D4000124002C04BF0346324635B101F1180CF4
:1057E4000026DCF8004054B9EAE688690026CCF8C3
:1057F40000008E72DCF80040002C3FF4E1AED4E9E6
:10580400001585EA0E0081EA0E063043561A73EB42
:1058140005064FF0000638BF0126002E1CBF1D46AA
:10582400114630B104F1180C0026DCF8004054B9DC
:10583400C4E6A0690026CCF80000A672DCF800409B
:10584400002C3FF4BBAED4E9002383EA0E0082EAC5
:105854000E0630438E1A75EB03064FF0000638BF70
:105864000126002E1CBF2B460A4600283FF475AFC4
:1058740004F1180C0026DCF8001000297FF477AF3F
:105884009EE601B0BDE8000FF0BDFFF79FB8FFF73B
:10589400B2B8FFF7C4B8FFF7D6B8D0E90002D268AF
:1058A400104780B56F4682B000208029019003D252
:1058B4008DF80410012134E002200A46B1F5006F8E
:1058C4000AD260F39F12C02040EA91108DF805209F
:1058D40002218DF8040024E060F39F12B1F5803FAB
:1058E4000DD28DF806208A0960F39F12E02040EA69
:1058F40011308DF805208DF80400032111E08DF896
:1059040007208A0960F39F128DF806200A0B60F3C2
:105914009F12F02040EA91408DF805208DF8040094
:10592400042101A8FCF71EF9002002B080BD0A463C
:1059340047F2E841C0F6000100F069B980B56F464E
:1059440082B000680421019001A8FCF70BF902B0B1
:1059540080BD80B56F4682B0D0E90001CDE9000179
:1059640068460821FCF7FEF802B080BDB0B502AF6E
:1059740082B0054601A80C4601910421FCF7F2F817
:1059840028462146FCF7EEF802B0B0BD80B56F465C
:1059940082B00088022127F8020CB81EFCF7E2F856
:1059A40002B080BD80B56F468CB0CDE90101002006
:1059B40007900120049047F20051069009A8059031
:1059C40045F69F00C0F60000C0F600010A9001A849
:1059D400039147F2E8410990781E03AAC0F600013A
:1059E40000F015F947F208500121C0F60000FCF759
:1059F400B9F80CB080BD80B56F4682B00088022132
:105A040027F8020CB81EFCF7ADF8FFF7E7FC02B06C
:105A140080BD80B56F4608461146FCF7A3F8002008
:105A240080BD704780B56F4600F000F880B56F46C2
:105A340047F27050C0F6000000F088F880B56F4659
:105A4400024647F28150C0F600002B2100F06BF8AB
:105A5400F0B503AF2DE9000F8DB0D1E905BA47F2D7
:105A6400C451DAF80C608146C0F600010C22584695
:105A7400B04720B101200DB0BDE8000FF0BD47F2E2
:105A8400AC520021D9F80400C0F6000205910321AC
:105A9400019200F10C0202910DF11C08049146F2EE
:105AA400E371C0F60001CDF80C80CDE90A1201AA19
:105AB4000C9100F10801099146F6D901C0F60001E4
:105AC400CDE907015846514600F0A1F820B1012064
